:100000000C9459000C9481000C9481000C94810094
:100010000C9481000C9481000C9481000C9481005C
:100020000C9481000C9481000C9481000C9481004C
:100030000C9481000C9481000C9481000C9481003C
:100040000C9489030C9481000C940F060C944106C7
:100050000C9481000C9481000C9481000C9481001C
:100060000C945C020C948100000000080002010066
:100070000003040700000000000000000102040863
:100080001020408001020408102001020408102002
:10009000040404040404040402020202020203032E
:1000A0000303030300000000250028002B00BA0111
:1000B000710611241FBECFEFD8E0DEBFCDBF11E027
:1000C000A0E0B1E0EEE7FFE002C005900D92A43A97
:1000D000B107D9F723E0A4EAB1E001C01D92AA302C
:1000E000B207E1F710E0C2EBD0E004C02297FE01B6
:1000F0000E94B907CE3AD107C9F70E9485070C9430
:10010000BD070C94000084EA91E00E94900126E073
:1001100040E052EC61E070E08DE692E00E94AD05B7
:1001200060E071E08DE692E00C94F8061F93CF93A7
:10013000DF936DE071E08DE692E00E94F806C0E08A
:10014000D0E011E0612F84EA91E00E949A0184EAF4
:1001500091E00E94B70181111DC069E171E08DE657
:1001600092E00E94F206103130F468E371E08DE60F
:1001700092E00E94F20640E150E0612F8DE692E0AD
:100180000E9466076AE371E08DE692E00E94F8063D
:10019000219617C08430A9F46EE371E08DE692E0F9
:1001A0000E94F206103130F468E371E08DE692E0CF
:1001B0000E94F20640E150E0612F8DE692E00E943D
:1001C0006D071F5F1F3709F0BDCFCD2B19F469E50F
:1001D00071E002C06FE671E08DE692E00E94F806E1
:1001E00068E873E180E090E0DF91CF911F910C947B
:1001F000F6038091D40190E02091D501821B9109F2
:1002000008952091D5018091D401281750F4E22F50
:10021000F0E0EA52FE4F808190E02F5F2093D501FD
:1002200008958FEF9FEF0895E091D5018091D4015B
:10023000E81730F4F0E0EA52FE4F808190E0089534
:100240008FEF9FEF08950895CF92DF92EF92FF9284
:100250000F931F93CF93DF937C01CB018A012091F1
:10026000B001222389F0EB016B01C40ED51ECC1521
:10027000DD0569F06991D701ED91FC910190F08164
:10028000E02DC7010995F3CF642F0E943302C80106
:10029000DF91CF911F910F91FF90EF90DF90CF9062
:1002A0000895CF93DF931F92CDB7DEB76983209176
:1002B000B0012223D1F02091B101203240F021E0A1
:1002C00030E0FC013383228380E090E015C0809110
:1002D000B201E82FF0E0ED54FE4F998190838F5FDB
:1002E0008093B2018093B10105C061E0CE01019617
:1002F0000E94330281E090E00F90DF91CF9108954A
:10030000FC011382128248EE53E060E070E0448307
:1003100055836683778389E791E09183808308958D
:100320001092D5011092D4011092B2011092B10135
:100330000C94BE0181E08093B0016093D3011092D0
:10034000B2011092B10108950F93062F21E0409160
:10035000B10163EB71E08091D3010E94DC01109246
:10036000B2011092B1011092B0010F91089561E0B5
:100370000C94A40184EA91E00C9480011092630231
:1003800081E0809361021092600261E082E10E944C
:10039000940461E083E10E949404E9EBF0E0808141
:1003A0008E7F808380818D7F808388E48093B800F6
:1003B00085E48093BC0008950F93413208F04AC051
:1003C000909163029111FCCF92E0909363020093AD
:1003D00061029FEF9093F60110923B0240933A0224
:1003E000FB016CE372E0DB019A2F961B941718F463
:1003F00091919D93F9CF1092620290916202880FC1
:10040000892B8093620280916002813061F41092A6
:100410006002809162028093BB008091BC0083FDEA
:10042000F8CF85EC01C085EE8093BC00222321F03B
:10043000809163028230E1F38091F6018F3F61F099
:100440008091F601803251F08091F601803341F4C1
:1004500083E007C081E005C080E003C082E001C006
:1004600084E00F910895613298F420916302243062
:1004700089F460931802FC018AE192E0DC012A2FE2
:10048000281B261718F421912D93F9CF80E00895A9
:1004900081E0089582E0089585ED8093BC0080910D
:1004A000BC0084FDFCCF10926302089585EC80931C
:1004B000BC001092630208951F920F920FB60F9224
:1004C00011242F933F934F935F936F937F938F9359
:1004D0009F93AF93BF93EF93FF938091B900887F71
:1004E000803609F49EC078F5883209F45DC090F436
:1004F000803109F456C038F4882309F4F5C08830F7
:1005000009F44FC0F5C0883109F44EC0803209F4B7
:100510005FC0EEC0803409F46AC058F4803309F437
:1005200057C0883309F0E4C08093F6010E94560258
:10053000DFC0803509F44FC0883509F45DC08834C8
:1005400009F0D6C0D3C0883909F4C4C0A8F48837EC
:1005500009F467C038F4883609F463C0803709F4B9
:1005600060C0C6C0883809F4B5C0803909F45FC0DE
:10057000803809F0BDC05BC0803B09F483C038F40B
:10058000803A09F466C0883A09F47CC0B1C0803C66
:1005900009F4A4C0883C09F4A1C0883B09F487C0D1
:1005A000A7C08091620210C090913B0280913A02F4
:1005B000981770F5E0913B0281E08E0F80933B022B
:1005C000F0E0E45CFD4F80818093BB0085EC83C04C
:1005D0008093F6018BC0E0913B0281E08E0F809307
:1005E0003B028091BB00F0E0E45CFD4F8083909182
:1005F0003B0280913A026BC0E0913B0281E08E0F9A
:1006000080933B028091BB00F0E0E45CFD4F80836F
:100610008091610281116AC081E08093600284EA66
:100620005EC083E0809363021092F701CFCF809188
:10063000F701803208F04EC0E091F70181E08E0FA3
:100640008093F7018091BB00F0E0E850FE4F80837B
:10065000BDCF0E9456028091F701803230F4E091C4
:10066000F701F0E0E850FE4F10826091F70170E072
:10067000E0915C02F0915D0288EF91E009951092A3
:10068000F70136C084E08093630210921902109241
:100690001802E0915E02F0915F02099580911802C4
:1006A000811105C081E08093180210921A02E09136
:1006B000190281E08E0F80931902F0E0E65EFD4F93
:1006C00080818093BB009091190280911802981745
:1006D00008F47CCF85E88093BC000AC085EC809349
:1006E000BC001092630204C01092F6010E944C02FA
:1006F000FF91EF91BF91AF919F918F917F916F91FA
:100700005F914F913F912F910F900FBE0F901F90CF
:1007100018951F920F920FB60F9211242F933F93AB
:100720008F939F93AF93BF938091650290916602E0
:10073000A0916702B09168023091640223E0230F18
:100740002D3720F40196A11DB11D05C026E8230F09
:100750000296A11DB11D20936402809365029093BF
:100760006602A0936702B09368028091690290913B
:100770006A02A0916B02B0916C020196A11DB11D9D
:100780008093690290936A02A0936B02B0936C020B
:10079000BF91AF919F918F913F912F910F900FBE7D
:1007A0000F901F9018953FB7F8948091690290912F
:1007B0006A02A0916B02B0916C0226B5A89B05C09D
:1007C0002F3F19F00196A11DB11D3FBF6627782F5D
:1007D000892F9A2F620F711D811D911D42E0660FB6
:1007E000771F881F991F4A95D1F708958F929F927E
:1007F000AF92BF92CF92DF92EF92FF926B017C019A
:100800000E94D3034B015C01C114D104E104F10443
:10081000F1F00E9494070E94D303681979098A09AC
:100820009B09683E73408105910570F321E0C21A6F
:10083000D108E108F10888EE880E83E0981EA11C1B
:10084000B11CC114D104E104F10429F7DDCFFF90FC
:10085000EF90DF90CF90BF90AF909F908F900895D2
:10086000789484B5826084BD84B5816084BD85B58B
:10087000826085BD85B5816085BDEEE6F0E0808152
:1008800081608083E1E8F0E0108280818260808373
:10089000808181608083E0E8F0E0808181608083F6
:1008A000E1EBF0E0808184608083E0EBF0E0808128
:1008B00081608083EAE7F0E08081846080838081CA
:1008C0008260808380818160808380818068808372
:1008D0001092C1000895833081F028F4813099F09E
:1008E0008230A1F008958730A9F08830B9F08430C3
:1008F000D1F4809180008F7D03C0809180008F773C
:1009000080938000089584B58F7702C084B58F7D71
:1009100084BD08958091B0008F7703C08091B000AE
:100920008F7D8093B00008950F931F93CF93DF9333
:100930001F92CDB7DEB7282F30E0F901E859FF4FFD
:100940008491F901E458FF4F1491F901E057FF4FEA
:1009500004910023C9F0882321F069830E946B046D
:100960006981E02FF0E0EE0FFF1FEC55FF4FA591DE
:10097000B4919FB7F8948C91611103C010958123B5
:1009800001C0812B8C939FBF0F90DF91CF911F915E
:100990000F910895FC01818D228D90E0805C9F4F26
:1009A000821B91098F7399270895FC01918D828D87
:1009B000981731F0828DE80FF11D858D90E0089534
:1009C0008FEF9FEF0895FC01918D828D981761F054
:1009D000828DDF01A80FB11D5D968C91928D9F5F76
:1009E0009F73928F90E008958FEF9FEF089587E6B1
:1009F00096E0892B49F080E090E0892B29F00E9455
:100A0000670681110C9400000895FC01848DDF01BC
:100A1000A80FB11DA35ABF4F2C91848D90E0019671
:100A20008F739927848FA689B7892C93A089B18960
:100A30008C9180648C93938D848D981306C002886A
:100A4000F389E02D80818F7D80830895CF93DF939C
:100A5000EC01888D8823C9F0EA89FB89808185FDB6
:100A600005C0A889B9898C9186FD0FC00FB607FC17
:100A7000F5CF808185FFF2CFA889B9898C9185FF58
:100A8000EDCFCE010E940505E7CFDF91CF9108950C
:100A9000CF92DF92FF920F931F93CF93DF931F921A
:100AA000CDB7DEB76C0181E0D60158968C9358978C
:100AB0005B969C915B975C968C915C97981307C0B2
:100AC0005096ED91FC915197808185FD2EC0F601E5
:100AD000038D10E00F5F1F4F0F731127F02EF601EB
:100AE000848DF81211C00FB607FCF9CFD6015096CD
:100AF000ED91FC915197808185FFF1CFC60169830B
:100B00000E9405056981EBCF838DE80FF11DE35A43
:100B1000FF4F6083D6015B960C935B975296ED91E5
:100B2000FC915397808180620CC0D6015696ED915E
:100B3000FC91579760835096ED91FC91519780817D
:100B40008064808381E090E00F90DF91CF911F91CE
:100B50000F91FF90DF90CF900895BF92CF92DF92D8
:100B6000EF92FF92CF93DF93EC016A017B01B22EEB
:100B7000E889F98982E08083411581EE5807610593
:100B80007105A1F060E079E08DE390E0A7019601A6
:100B90000E94950721503109410951095695479501
:100BA00037952795211580E1380798F0E889F9896C
:100BB000108260E874E88EE190E0A70196010E943F
:100BC00095072150310941095109569547953795A7
:100BD0002795EC85FD853083EE85FF852083188E73
:100BE000EC89FD89B082EA89FB89808180618083FC
:100BF000EA89FB89808188608083EA89FB8980811A
:100C000080688083EA89FB8980818F7D8083DF9182
:100C1000CF91FF90EF90DF90CF90BF9008951F92FB
:100C20000F920FB60F9211242F938F939F93EF93F0
:100C3000FF93E0917D02F0917E028081E09183023A
:100C4000F091840282FD12C09081809186028F5FB4
:100C50008F7320918702821751F0E0918602F0E0B5
:100C6000E359FD4F958F8093860201C08081FF91EB
:100C7000EF919F918F912F910F900FBE0F901F902A
:100C800018951F920F920FB60F9211242F933F9336
:100C90004F935F936F937F938F939F93AF93BF9384
:100CA000EF93FF938DE692E00E940505FF91EF918F
:100CB000BF91AF919F918F917F916F915F914F9174
:100CC0003F912F910F900FBE0F901F9018958DE6BA
:100CD00092E00E94CA0421E0892B09F420E0822FCF
:100CE00008951092700210926F0288EE93E0A0E0D7
:100CF000B0E08093710290937202A0937302B0935C
:100D0000740289E891E090936E0280936D0285EC05
:100D100090E090937A028093790284EC90E0909333
:100D20007C0280937B0280EC90E090937E02809323
:100D30007D0281EC90E09093800280937F0282ECB0
:100D400090E0909382028093810286EC90E09093F1
:100D5000840280938302109286021092870210927E
:100D60008802109289020895CF92DF92EF92FF924B
:100D70000F931F93CF93DF937C016A01EB0100E097
:100D800010E00C151D0571F06991D701ED91FC91F2
:100D90000190F081E02DC7010995892B19F00F5FB3
:100DA0001F4FEFCFC801DF91CF911F910F91FF909F
:100DB000EF90DF90CF9008956115710581F0DB0110
:100DC0000D900020E9F7AD0141505109461B570B2A
:100DD000DC01ED91FC910280F381E02D099480E02B
:100DE00090E008950C94DC0665E971E00C94DC0653
:100DF0000F931F93CF93DF93EC010E94DC068C01CD
:100E0000CE010E94F406800F911FDF91CF911F91B8
:100E10000F9108958F929F92AF92BF92DF92EF92BF
:100E2000FF920F931F93CF93DF93CDB7DEB7A197B8
:100E30000FB6F894DEBF0FBECDBF7C01F42FD52EC8
:100E4000CB0119A2223008F42AE08E010F5D1F4F5A
:100E5000822E912CA12CB12C6F2F7D2DA5019401F8
:100E60000E949507F22FD32ECA01015011096A3052
:100E700014F4E0E301C0E7E3E60FD801EC93232B81
:100E8000242B252B49F7B801C7010E94DC06A19647
:100E90000FB6F894DEBF0FBECDBFDF91CF911F918B
:100EA0000F91FF90EF90DF90BF90AF909F908F9049
:100EB00008952115310541F4DC01ED91FC9101907B
:100EC000F081E02D642F09940C940A079A01462FB3
:100ED00050E060E070E00C9459070F931F93CF939C
:100EE000DF93EC019A01462F50E060E070E00E9431
:100EF00059078C01CE010E94F406800F911FDF91EB
:100F0000CF911F910F91089508950E9430040E947F
:100F100084070E948300C7EFD4E00E9496002097C8
:100F2000E1F30E94F704F9CF0895A1E21A2EAA1B5B
:100F3000BB1BFD010DC0AA1FBB1FEE1FFF1FA21789
:100F4000B307E407F50720F0A21BB30BE40BF50B86
:100F5000661F771F881F991F1A9469F7609570950F
:100F6000809590959B01AC01BD01CF010895EE0FD6
:0E0F7000FF1F0590F491E02D0994F894FFCF37
:100F7E000A493243205363616E6E6572005363619A
:100F8E006E6E696E672E2E2E004932432064657692
:100F9E0069636520666F756E642061742061646498
:100FAE007265737320307800300020202100556E5A
:100FBE006B6E6F77206572726F7220617420616440
:100FCE006472657373203078004E6F20493243206F
:100FDE006465766963657320666F756E640A006476
:100FEE006F6E650A000000000051012401F9000136
:100FFE000114012301000000004805B406CA04E3F1
:10100E0004D50426050D0A006E616E00696E660039
:04101E006F76660083
:00000001FF
